:020000040800F2
:10000000E008002099010008EB2000088F1B000881
:10001000E9200008AF060008952A0008000000004B
:10002000000000000000000000000000FD280008A3
:10003000B106000800000000C5270008FF280008DE
:10004000B3010008B3010008B3010008B3010008C0
:10005000B3010008B3010008B3010008B3010008B0
:10006000B3010008B3010008B3010008B3010008A0
:10007000B3010008B3010008B3010008B301000890
:10008000B3010008B3010008B3010008B301000880
:10009000B3010008B3010008B3010008B301000870
:1000A000B3010008B3010008B3010008B301000860
:1000B000B3010008B3010008B3010008B301000850
:1000C000B3010008B3010008B3010008B301000840
:1000D000B3010008B3010008B3010008B301000830
:1000E000B3010008B3010008B301000800F002F8F2
:1000F00000F042F80AA090E8000C82448344AAF180
:100100000107DA4501D100F037F8AFF2090EBAE87D
:100110000F0013F0010F18BFFB1A43F0010318473B
:10012000043A0000243A0000103A24BF78C878C18D
:10013000FAD8520724BF30C830C144BF04680C60ED
:10014000704700000023002400250026103A28BF35
:1001500078C1FBD8520728BF30C148BF0B60704739
:10016000642900F07580782900F0AE800020704787
:100170001FB51FBD10B510BD00F05FFA1146FFF7A7
:10018000F7FF02F0B3FC00F07DFA03B4FFF7F2FFD3
:1001900003BC00F085FA0000094880470948004781
:1001A000FEE7FEE7FEE7FEE7FEE7FEE7FEE7FEE727
:1001B000FEE7FEE704480549054A064B7047000084
:1001C00061290008ED000008E0020020E00800209E
:1001D000E0040020E00400200FB41CB5074B06AA81
:1001E0007B4469460090059800F00FFA00206946AC
:1001F00000F01EFA1CBC5DF814FB00004D0400006A
:1002000070B5044685690068C10601D5302600E056
:100210002026C00707D070BDD4E9012130469047A1
:10022000206A401C20626D1EF6D570BD70B5044674
:1002300085690078C00707D170BDD4E9012120206D
:100240009047206A401C20626D1EF6D570BD0000EC
:100250002DE9F0410646002410687529314616A59F
:1002600010D0AFF30080002802DA404213A507E067
:1002700031688A0701D512A502E0490704D511A506
:10028000012401E0AFF3008000210A2206F12407D7
:1002900009E0B0FBF2FCB0FBF2F302FB1C003030D3
:1002A00078541846491C0028F3D123462A46304684
:1002B000BDE8F04100F04BB9000000002D00000047
:1002C0002B0000002000000070B504460D462146BA
:1002D0001068AFF300802188090502D50F4A7A44DF
:1002E00002E00E4A7A440E32002104F1240305E0B4
:1002F00000F00F060009965D5E54491C0028F7D1F6
:1003000020780023000704D5702D02D009B1022304
:1003100011322046BDE8704000F019B92B370000BB
:100320002DE9F05F894604464FF0000ADFF824B15A
:10033000FB44C0F820A02046E168884700287DD013
:10034000252806D0D4E901219047206A401C20626C
:10035000F1E700255F462046E168884720280646E9
:1003600007DB312E05D2B81910F8200C08B105436F
:10037000F1E7A80701D525F00405C4F81CA0002763
:10038000C4F818A02A2E09D0304602F094FB38B3E6
:1003900004EB8708303EC8F8186019E059F8041BD0
:1003A000204604EB87029161E1688847012F0646E9
:1003B00018D1E069002820DA25F020051DE0D8F8E2
:1003C000180000EB800006EB40003038C8F8180039
:1003D0002046E1688847064602F06DFB0028EED112
:1003E000012F0AD02E2E08D12046E16888477F1CB5
:1003F0000646022F45F02005C4DBA069002803DA79
:10040000404245F00105A061E80701D025F0100544
:10041000A6B1A6F14100192802D8203645F400659E
:100420004A463146204625604D46FFF799FE60B1A9
:10043000012807D0ED1D25F0070000E007E000F1DE
:10044000080978E705F1040975E730467AE7206A7C
:10045000BDE8F09F0137000010B5431C02E010F822
:10046000011B71B18107FAD14FF0013202C88C1A19
:100470008C4314EAC211F9D0C01A0A0603D0C01E78
:1004800010BDC01A10BD0A0401D0801E10BD0902A3
:10049000FCD0401E10BD10B5203AC0F00B80B1E872
:1004A0001850203AA0E81850B1E81850A0E81850A9
:1004B000BFF4F5AF5FEA027C24BFB1E81850A0E8B2
:1004C000185044BF18C918C0BDE810405FEA827CCC
:1004D00024BF51F8043B40F8043B08BF7047D207E3
:1004E00028BF31F8023B48BF11F8012B28BF20F884
:1004F000023B48BF00F8012B70474FF0000200B5E7
:10050000134694469646203922BFA0E80C50A0E836
:100510000C50B1F12001BFF4F7AF090728BFA0E8E4
:100520000C5048BF0CC05DF804EB890028BF40F8B0
:10053000042B08BF704748BF20F8022B11F0804FF2
:1005400018BF00F8012B70477047704770472DE9BE
:10055000F0470D4699469246044600F1240801688A
:10056000880604D5E06921F01001216000E0012037
:10057000A84201DD471B00E00027A1697A1902EBC0
:100580000900081AA0612078C00602D42046FFF7AF
:1005900037FE002608E0D4E901211AF8060090474A
:1005A000206A401C761C20624E45F4DB2078C00691
:1005B0000AD52046FFF724FE06E0D4E901213020C9
:1005C0009047206A401C2062381EA7F10107F4DC26
:1005D00007E0D4E9012118F805009047206A401C83
:1005E0002062281EA5F10105F3DC2046FFF71EFE60
:1005F0002078000602D50220BDE8F0870120FBE745
:1006000001694A1C02610878704700B58FB0CDE9D6
:1006100001310021059105497944CDE903101146C6
:100620006846FFF77DFE0FB000BD0000E5FFFFFF4D
:100630000A6802F8010B0A607047754600F02CF852
:10064000AE4605006946534620F00700854618B0BF
:1006500020B5FFF7AFFDBDE820404FF000064FF09A
:1006600000074FF000084FF0000B21F00701AC46E7
:10067000ACE8C009ACE8C009ACE8C009ACE8C00906
:100680008D46704710B50446AFF300802046BDE8A4
:100690001040FFF77ABD000000487047800200203C
:1006A00001491820ABBEFEE7260002007047FEE7B6
:1006B0007047000070B5044600F004F90546601C60
:1006C00002D004480078044400F0FCF8401BA0422B
:1006D000FAD370BD200000202DE9F84FDFF8B89163
:1006E0000024A9F1040B23460F2709F1040AABF1FA
:1006F000040EC9E00125A5402A40AA427DD1674EDB
:10070000D1F804C0ACEB0608B44532D014DCBCF11F
:10071000030F3AD009DCBCF1000F2AD0BCF1010F65
:100720001CD0BCF1020F31D11DE0BCF1110F17D06C
:10073000BCF1120F2AD119E0B8F5881F19D006DCD8
:10074000B8F5803F15D0B8F5801F1FD111E0B8F57E
:10075000001F0ED0B8F5041F18D10AE0CB6815E0D1
:10076000CB681B1D12E0CB6808330FE0CB680C335D
:100770000CE08B682BB1012B4FF0080303D04561CF
:1007800004E0042302E0056100E00023FF2A01D811
:10079000064601E000F104064FEA840501D9A5F1FF
:1007A0002005D6F8008007FA05FC28EA0C0803FAB1
:1007B00005F548EA0508C6F800804D68ED0062D5E9
:1007C000374DAE6946F00106AE61AD6924F003060F
:1007D00005F001050095334D06EB050CDCF80850DB
:1007E000A607360F07FA06F825EA0805DFF8B880ED
:1007F000404503D14FF0000817E044E0DFF8AC803B
:10080000404502D14FF001080FE0DFF8A4804045D9
:1008100002D14FF0020808E0DFF89880404502D18D
:100820004FF0030801E04FF0040808FA06F848EA20
:100830000508CCF808804D68D9F80060ED024D46F7
:1008400001D5164300E096432E604D68DAF800604B
:10085000AD02554601D5164300E096432E604D6823
:10086000DBF80060AD035D4601D5164300E096431A
:100870002E604D68DEF80060ED03754601D5164325
:1008800000E096432E60641C0D682A46E5407FF424
:1008900031AFBDE8F88F00000804014000001110DE
:1008A000001002400000014000080140000C01401F
:1008B00000100140001401400AB1016170470904B1
:1008C000FBE700000148806870470000200000201E
:1008D00070B5040025D094F83D00002520B984F8B7
:1008E0003C50204600F078FA242084F83D0020682F
:1008F000016821F0010101602068016841F40041B4
:1009000001602068016821F40041016000F0B2FB41
:100910004D4A6168914201D84C4900E04C498842F7
:1009200001D2012070BD4B492368B0FBF1F15E6834
:1009300026F03F060E435E606368934206D94FF48B
:10094000967359434FF47A73B1FBF3F12368491C52
:100950001E6A26F03F06314319626168914210D841
:100960004900401EB0FBF1F2521CC2F30B02042AF4
:1009700001D2042022E0B0FBF1F0401CC0F30B00D8
:100980001CE0A268F2B301EBC10303EB0116431EA6
:10099000B3FBF6F35B1C43F480431B0549D092B3D1
:1009A00001EBC10202EB0111401EB0FBF1F0401C53
:1009B000C0F30B0040F4804040F400402168CA6955
:1009C0004CF6FF739A431043C861D4E90710014302
:1009D0002068026822F0C00211430160D4E90301DB
:1009E00001432068826848F2FF339A4311438160D3
:1009F000D4E9050108432168CA6822F0FF021043C8
:100A0000C86001E00EE016E02068016841F00101D5
:100A100001602564202084F83D00256384F83E5061
:100A2000002070BD01EB4106431EB3FBF6F35B1CD7
:100A3000B3E70120C2E701EB4101401EB0FBF1F03A
:100A4000401CC0F30B00B7E7A086010080841E00A5
:100A500000093D0040420F002DE9FF4F83B0002503
:100A6000DDE910799A4693460446DDF84880009502
:100A7000FFF728FF064694F83D0020287CD1192373
:100A8000012285492046009601F098F90028F5D109
:100A900094F83C0001286FD0012084F83C002068C5
:100AA0000168C90703D1016841F0010101602068B4
:100AB000016821F400610160222084F83D0040209B
:100AC00084F83E0025646762A4F82A90608D208532
:100AD0007248E062CDE9008653465A4620460499A2
:100AE00001F06EF800287DD1208DDFF8B491202729
:100AF00068B1012814D00228206801681ED041F492
:100B0000806101602068416980690090B6E02068DA
:100B1000416981690091016841F400710160ADE0B3
:100B20002068016821F48061016072B62068416923
:100B300081690091016841F400710AE041F40061AB
:100B4000016072B62068416981690091016821F4F1
:100B50008061016062B691E0032868D801280CD05A
:100B6000022843464FF000024946204600960FD027
:100B700001F024F9B0BB10E08BE03246414620463C
:100B800001F0C2F970BB20680069616A08706CE00E
:100B900001F014F930BB72B634E02068016821F42A
:100BA0008061016072B620680069616A0870606ADD
:100BB000401C6062208D401E2085608D401E608537
:100BC000384846F2A8110068B0FBF1F0C0EBC00055
:100BD00000EB80000090401E009008D02068406923
:100BE000C04300E029E040070CD50098F3E744F843
:100BF000305F6773A573206940F02000206162B602
:100C000025731AE02068016841F4007101602068D2
:100C10000069616A0870606A401C6062218D491E2B
:100C20002185618D491E618562B621681BE03246CF
:100C30004146204601F068F918B1012007B0BDE82F
:100C4000F08F20680069616A0870606A401C606209
:100C5000218D491E2185618D491E618521684A6962
:100C6000D24352070AD409690170606A401C60626D
:100C7000208D401E2085608D401E6085208D0028BF
:100C80007FF46AAF84F83D7084F83E5084F83C509D
:100C9000D4E70220D2E70000020010000000FFFFAE
:100CA000040001002C0000202DE9FF4F83B09A467C
:100CB000DDE9119793460446DDF84080FFF702FE18
:100CC000054694F83D0020287FD119230122404990
:100CD0002046009501F072F8002876D194F83C0087
:100CE000012872D0012084F83C0020680168C907FF
:100CF00003D1016841F0010101602068016821F41D
:100D000000610160212084F83D00402084F83E000D
:100D100000262664C4F82480A4F82A90608D2085DB
:100D20002C48E062CDE9007553465A4620460499A6
:100D300000F0C4FF70B930E02A463946204601F081
:100D40001BF958B1206C042804D12068016841F4D3
:100D500000710160012007B0BDE8F08F606A216872
:100D600000780861606A401C6062218D491E89B26A
:100D70002185628D521E628522685369DB435B07C1
:100D80000BD469B100781061606A401C6062208DEC
:100D9000401E2085608D401E6085208D0028CBD1AF
:100DA0002A463946204600F0DDFF0028CAD154F813
:100DB0003D0B016841F400710160202004F81E0918
:100DC000E67766770020C6E7FFE70220C3E700006A
:100DD000020010000000FFFF10B586B00021009156
:100DE00001910291039100680F4988421AD10F4C7A
:100DF000A06940F00800A061A069694600F0080001
:100E00000490C02000901220019003200390084815
:100E1000FFF762FCE06940F40010E061E06900F473
:100E20000010049006B010BD0054004000100240B5
:100E3000000C0140024881680278114481607047CB
:100E400020000020074810B5016841F01001016042
:100E5000032000F067F80F2000F006F800F024F8F7
:100E6000002010BD0020024070B50D4D04464FF427
:100E70007A712878B1FBF0F00A490968B1FBF0F00B
:100E800000F0B9FD48B9102C07D200222146501EAF
:100E900000F028F800206C6070BD012070BD0000DB
:100EA000200000202C0000200C4808B5816941F08A
:100EB00001018161816901F001010091C16941F085
:100EC0008051C161C06900F08050009004484168C1
:100ED00021F0E06141F00071416008BD0010024066
:100EE00000000140F0B40E4B1B680C46C3F3022314
:100EF000C3F10705042D00D90425191D072901D2C6
:100F0000002300E0DB1E012606FA05F1491E214000
:100F100099409E40761E16403143F0BC01F0BBBDA7
:100F20000CED00E0064900F0070208684FF6FF03E9
:100F3000184040EA0220034A10430860704700004E
:100F40000CED00E00000FA052DE9F0470F46050022
:100F500061D0434E306800F00700B84209D23068D3
:100F600020F0070038433060306800F00700B842D6
:100F700051D128683B4C810712D5400703D56068E2
:100F800040F4E06060602878000703D5606840F4B2
:100F9000605060606068A96820F0F00008436060FD
:100FA0002878C00728D06868012810D02168022856
:100FB00010D0890700292EDA616821F0030101436E
:100FC0006160FFF77FFC804641F288390DE02168BF
:100FD0008903EFE78901EDE7FFF774FCA0EB080157
:100FE000494502D90320BDE8F0876068696800F0D0
:100FF0000C00B0EB810FEFD1306800F00700B84271
:101000000BD9306820F0070038433060306800F0BA
:101010000700B84201D00120E5E72878400705D550
:101020006068E96820F4E0600843606028780007A1
:1010300006D56068296920F4605040EAC10060600C
:1010400000F038F86168084AC1F30311515CC840E8
:101050000649086006480068FFF706FF0020C2E75F
:101060000020024000100240E83900082C00002057
:10107000240000200448054900684968044AC1F377
:101080000221515CC84070472C0000200010024033
:10109000F83900080448054900684968044AC1F362
:1010A000C221515CC84070472C0000200010024053
:1010B000F83900080E4A51680E4801F00C03042B61
:1010C00011D0082B0FD10C48C1F38343C903C05C76
:1010D0000AD55168084AC1F34041921E515C054A45
:1010E0005043B0FBF1F0704704494843704700009B
:1010F0000010024000127A00D839000800093D00B3
:101100002DE9F84F040070D02078C04DC00749D0B9
:101110006868C0F38100012807D06868C0F38100C7
:10112000022809D16868C00306D52868800339D52C
:1011300060680028E7D035E06068B0F5803F0BD0EC
:1011400010B1B0F5A02F11D0286820F480302860AD
:10115000286820F4802002E0286840F4803028606D
:10116000606890B1FFF7AEFB06460AE0286840F4DD
:1011700080202860F0E700BFFFF7A4FB801B6428F5
:1011800073D828688003F7D50CE0FFF79BFB064671
:1011900005E000BFFFF796FB801B6428F0D82868A5
:1011A0008003F7D420789A4E80074FF001094FF062
:1011B000000839D5686810F00C0F07D06868C0F3D4
:1011C0008100022809D16868C00306D42868800716
:1011D00014D52069012808D110E02069B0B1C6F803
:1011E0000090FFF76FFB074605E00AE1FFF76AFB97
:1011F000C01B0228C4D828688007F7D52868616911
:1012000020F0F80040EAC10028600DE0C6F8008038
:10121000FFF758FB074604E0FFF754FBC01B02280A
:1012200023D828688007F7D4207800072CD5794880
:10123000A169D9B1C0F80090FFF744FB074604E06C
:10124000FFF740FBC01B02280FD8686A8007F7D55C
:1012500071484FF4FA510068B0FBF1F0009000BF04
:101260000098411E0091FAD20EE080E0C0F80080A4
:10127000FFF728FB074604E0FFF724FBC01B02280A
:1012800075D8686A8007F7D42078400760D5E86988
:101290000027C00008D4E86940F08050E861E869A0
:1012A000012700F0805000905C480168C90513D404
:1012B0000168834641F480710160FFF703FB8246B9
:1012C00006E000BFFFF7FEFAA0EB0A0064284ED844
:1012D000DBF80000C005F5D5E06801280AD008B1A8
:1012E000052813D0286A20F001002862286A20F01F
:1012F000040002E0286A40F001002862E06841F240
:10130000883B98B1FFF7DEFA82460BE0286A40F08E
:1013100004002862EEE700BFFFF7D4FAA0EB0A0151
:1013200059455AD8286A8007F6D50CE0FFF7CAFA63
:10133000824605E0FFF7C6FAA0EB0A0159454CD8F2
:10134000286A8007F6D41FB1E86920F08050E86170
:10135000E06988B36968C1F38101022944D0022899
:10136000C6F8608004D0FFF7ADFA044638E034E0F8
:10137000FFF7A8FA074604E0FFF7A4FAC01B02280B
:101380002BD828688001F7D4206AB0F5803F05D1BA
:101390006868A16820F4003008436860D4E9080157
:1013A0000843696821F4741108436860C6F86090C6
:1013B000FFF788FA044606E025E000BFFFF782FA4F
:1013C000001B022809D828688001F7D51BE000BF60
:1013D000FFF778FA001B022802D90320BDE8F88F36
:1013E00028688001F4D40EE00128F7D06868226AEA
:1013F00000F48031914204D1616A00F47010884297
:1014000001D00120EAE70020E8E7000000100240D8
:1014100000004242800442422C0000200070004044
:1014200070B5040009D0606A002540B1256165618E
:10143000A56294F8510040B10CE0012070BD6068D5
:10144000B0F5827FF4D0E561F2E784F85050204691
:1014500000F040F8022084F851002068016821F073
:1014600040010160A088218900F4827001F40441E8
:101470000843A18901F400610843217C01F00201C5
:101480000843217D01F001010843218B01F4007123
:101490000843217F01F03801084394F8201001F03F
:1014A00080010843218D01F4005108432168086040
:1014B000A069042101EA1040216848602068C169E0
:1014C00021F40061C1616565012084F851000020AC
:1014D00070BD000030B585B00024009401940294E2
:1014E000039400681449884223D11448816941F467
:1014F00080518161816901F480510491816941F0D9
:101500000401816180690E4D00F004000490A02068
:101510000090022001900320039069462846FFF7BF
:10152000DBF84020CDE90004694628460294FFF725
:10153000D3F805B030BD000000300140001002407B
:10154000000801402DE9F84F044690F851009846F4
:1015500016460F460025012801D0022598E0606854
:101560004FF0040BB0F5827F01D1A068F8B194F878
:101570005000012826D04FF0010984F85090FFF761
:10158000A1F98246002F7FD0002E7DD084F851B083
:1015900000206065A763A687E6872063A086E086B3
:1015A00020646064A068B0F5004F0DD016E084F8A8
:1015B00051B013460A462046CDF8008000F024F9C9
:1015C000BDE8F88F0220FBE72068016821F04001A8
:1015D00001602068016821F4804101602068016891
:1015E000490603D4016841F040010160E068D8B1C8
:1015F0003BE020688168C90709D0007BA16B0870B7
:10160000A06B401CA063E08F401EE0870CE0FFF75A
:1016100059F9A0EB0A01414503D3B8F1FF3F03D0CC
:1016200006E0B8F1000F03D0E08F0028E1D11FE001
:1016300003252BE020688168C90709D0C068A16B29
:101640000880A06B801CA063E08F401EE0870CE048
:10165000FFF738F9A0EB0A01414503D3B8F1FF3F8A
:1016600003D0E5E7B8F1000FE2D0E08F0028E1D128
:1016700052464146204601F0A6F808B12020606598
:10168000606D00E000E008B1012501E084F85190B0
:10169000002084F85000284692E72DE9F84F0446D0
:1016A00090F850000026984615468A4601280CD02E
:1016B000012784F85070FFF705F9814694F851002E
:1016C000B346012804D002269AE00220BDE8F88F34
:1016D000BAF1000F6FD0002D6DD0032084F85100B7
:1016E000C4F854B0C4F830A0A586E586C4F838B074
:1016F000A4F83CB0A4F83EB0C4F844B0C4F840B07C
:10170000A068B0F5004F09D12068016821F04001C0
:1017100001602068016841F480410160206801682F
:10172000490603D4016841F040010160E068B0F56A
:10173000006F606803D058B3012D29D049E008B18B
:10174000012D1FD1206B21680088C86006E0206849
:101750008168890709D5216B0988C160206B801CCD
:101760002063E08E401EE0860CE0FFF7ABF8A0EBB4
:101770000901414503D3B8F1FF3F03D006E0B8F1BA
:10178000000F03D0E08E0028E1D125E0032635E0EC
:10179000206B21680078087306E02068816889075B
:1017A0000AD5216B09780173206B401C2063E08E01
:1017B000401EE0860DE01FE0FFF784F8A0EB090172
:1017C000414503D3B8F1FF3F03D0DFE7B8F1000F85
:1017D000DCD0E08E0028E0D14A464146204601F0A8
:1017E00020F808B120206065A06818B92068C16899
:1017F00080680090606D08B1012601E084F85170A6
:1018000084F850B0304661E72DE9FF4F81B00446BF
:1018100090F8500000260E9F1D4693464FF0010998
:1018200001280FD04FF0010A84F850A0FFF74AF8C2
:10183000804694F85100616801280DD0B1F5827F8F
:1018400008D103E0022005B0BDE8F08FA16809B916
:10185000042801D00226C9E00298002865D0BBF117
:10186000000FFBD0002DF9D094F85100042802D0CD
:10187000052084F8510000206065C4F838B0E58781
:10188000A58702992163E586A586206460642068A7
:101890000168490603D4016841F040010160E06835
:1018A000B0F5006F606803D0F0B3012D47D081E040
:1018B00008B1012D3CD1206B21680088C860206BE5
:1018C000801C2063E08E401EE08631E02068816845
:1018D00089070FD5E18E69B1B9F1010F0AD1216BEA
:1018E0000988C160206B801C2063E08E401EE0866A
:1018F0004FF0000920688168C9070CD0E18F51B111
:10190000C068A16B0880A06B801CA063E08F401EA4
:10191000E0874FF00109FEF7D5FFA0EB0800B842C1
:1019200006D3781C04D001E009E05BE003265BE00D
:10193000E08E0028CAD1E08F0028C7D140E0206B9C
:10194000216800780873206B401C2063E08E401EE5
:10195000E0862FE02068816889070FD5E18E69B1A4
:10196000B9F1010F0AD1216B09780173206B401C7A
:101970002063E08E401EE0864FF0000920688168F9
:10198000C9070CD0E18F51B1C068A16B0870A06B82
:10199000401CA063E08F401EE0874FF00109FEF776
:1019A00091FFA0EB0800B84202D3781C02D0BAE73E
:1019B000002FB8D0E08E0028CCD1E08F0028C9D10C
:1019C00042463946204600F02CFF18B1012620205F
:1019D00060650BE0A06818B92068C1688068009055
:1019E000606D08B1012601E084F851A0002084F860
:1019F0005000304627E710B5401EB0F1807F01D37C
:101A0000012010BD4FF0E02460610F21601701F04C
:101A100042F80020A06107202061002010BD70B5B1
:101A2000040004D094F84100002510B106E0012024
:101A300070BD84F84050204600F024F8242084F83B
:101A400041002068C16821F40051C160204600F0C7
:101A500089FF2068016921F4904101612068416992
:101A600021F02A0141612068C16841F40051C16040
:101A70006564202084F8410084F8420065630020FA
:101A800070BD000030B585B000240094019402942C
:101A9000039400681449884224D11448816941F4B0
:101AA00080418161816901F480410491816941F043
:101AB0000401816180690E4D00F0040004904FF430
:101AC0000070009002200190032003906946284690
:101AD000FEF702FE2815CDE9000469462846029467
:101AE000FEF7FAFD05B030BD00380140001002409D
:101AF000000801402DE9F843044690F841001F46D4
:101B000016460D46202802D00220BDE8F8837DB19C
:101B100076B100206064212084F84100FEF7D2FEF7
:101B2000A6848046E684A068B0F5805F02D003E01A
:101B30000120EAE7206910B12E4600250EE00026BC
:101B40000CE08021204600F069FFA0B9AEB116F884
:101B5000010B21684860E08C401EE084E08C434625
:101B60004FF0000200970028EBD14FF040012046D3
:101B700000F054FF30B10320C7E735F8020BC0F383
:101B80000800E6E7202084F841000020BDE7FEE7DA
:101B900001684A69D24352050FD46FF480624A61EA
:101BA000002140F8301F202242738173026942F005
:101BB0000402026101730120704700207047000099
:101BC0002DE9F84F0446006889460B9D0168984648
:101BD000174641F4806101602068016841F480711A
:101BE000016000954FF0011B0022594620460A9BD8
:101BF00000F0E4F84FF4007A40B120680068C005B6
:101C000001D5C4F840A00320BDE8F88F216809F091
:101C1000FE0008612B46284920460A9A00F016F972
:101C2000F0BB20684169806900902A4620460A99E5
:101C300000F0A2F940B1206C04283AD12068016874
:101C400041F40071016034E0FEB2B8F1010F09D037
:101C50002168380A08612A4620460A9900F08CF962
:101C60000028E8D1206806612A4620460A9900F03B
:101C700083F90028DFD12068016841F48071016098
:101C800000950022594620460A9B00F097F800284C
:101C9000B3D1216809F0FF0040F00100086100E0C5
:101CA00007E02B46044920460A9A00F0CFF80028A6
:101CB000AAD00120A8E70000020001002DE9F843A6
:101CC000044600680D46DDE9089701689846164607
:101CD00041F4807101604B4600224FF00111204613
:101CE000009700F06BF848B120680068C00502D585
:101CF0004FF4007020640320BDE8F883216805F0EC
:101D0000FE0008613B464A461549204600F09EF811
:101D100088B920684169806900903A464946204662
:101D200000F02AF948B1206C042804D12068016829
:101D300041F4007101600120DEE7F5B2B8F1010F56
:101D400009D02168300A08613A464946204600F029
:101D500013F90028E7D1206805610020CCE70000D6
:101D60000200010070B516460D4604461EE02046EE
:101D7000FFF70EFF08B1012070BD681C16D0FEF7FA
:101D8000A1FD801BA84200D885B920684069C043E6
:101D900040070BD5002044F8300F20216173A07359
:101DA000216941F0200121612073E4E72068406946
:101DB000C0434007DBD4002070BD00002DE9F04790
:101DC000984617460D460446C1F30746DDF82090B5
:101DD0002AE000BFB8F1FF3F26D0FEF773FDA0EB6D
:101DE0000901414502D8B8F1000F1DD12068012E2C
:101DF00016D0806925EA00000004000C12D00020F3
:101E0000B84211D1002044F8300F20216173A07333
:101E1000216941F02001216120730120BDE8F08794
:101E20004069E7E70120EBE72068012E0AD08069CE
:101E300025EA00000004000C06D00020B842C9D0FA
:101E40000020EBE74069F3E70120F7E72DE9F047D1
:101E5000984616460D4604464FF000094FF0200AFA
:101E6000C1F3074723E020684069C043400515D40B
:101E70002068016841F40071016021686FF480609E
:101E80004861C4F8309084F83DA084F83E90216CFD
:101E900041F00401216484F83C9021E0701C06D0DC
:101EA000FEF710FDA0EB0800B04203D816B1012FD9
:101EB0001FD021E02068012F15D0806925EA00009D
:101EC0000004000C18D000BF44F8309F84F80DA027
:101ED00084F80E90216941F02001216184F80C9072
:101EE0000120BDE8F087406925EA00000004000CED
:101EF000EAD12068406901E02068806925EA000095
:101F00000004000CAFD1ECE72DE9F041002590462C
:101F10000E460446202728E04069C043C0060CD482
:101F200054F8301B6FF01000486144F8105967777F
:101F3000A577206A2062257714E0FEF7C3FCA0EBAA
:101F40000800B04200D886B920684069C043400606
:101F50000BD544F8305F6773A573206940F020000B
:101F6000206125730120BDE8F08120684169C943E3
:101F70004906D1D40020F6E770B516460D46044652
:101F80001EE02046FFF704FE08B1012070BD681C6A
:101F900016D0FEF797FC801BA84200D885B92068B0
:101FA0004069C04300060BD5002044F8300F2021C3
:101FB0006173A073216941F0200121612073E4E77E
:101FC00020684069C0430006DBD4002070BD1FB507
:101FD00000228DF80C2041228DF80D204FF0FF34A7
:101FE000022303AA8DE81C004A000123FEF75CFED1
:101FF0001FBD00001FB54FF0FF34022303AA8DE878
:102000001C00012202EB410113460422FEF724FDCD
:10201000BDF80C0001F08DFA044A054B01F09CFA62
:1020200004B0BDE8104001F053BA0000FCA9F1D2A1
:102030004D62503F30B585B000241848009401949B
:1020400002940394816941F020018161816901F06A
:1020500020010491816941F004018161816901F0ED
:1020600004010491816941F00801816180690C4D8E
:1020700000F008000490002218212846FEF71CFCFE
:10208000182000900120CDE9010402200390694648
:102090002846FEF721FB05B030BD000000100240CD
:1020A000000801400F4810B50D4901604FF48271DE
:1020B000416000218160C1604FF400720161C0E99C
:1020C00005121822C0E90721416281620A21C1621A
:1020D000FFF7A6F9002801D072B6FEE710BD000098
:1020E000003001409C000020FEE7FEE708B500201C
:1020F00000F00CF950208DF8000073208DF80100DD
:102100006423022269460348FFF7C7FA012000F062
:10211000FDF808BDE00100200449054A0968B1FB4B
:10212000F2F14143491EFDD2704700002C0000200F
:10213000C0C62D000020AFF3008070B5054600F04A
:102140000EF90446C0F380166EB115B1C4F3420017
:1021500028704021072000F0FFFAA00603D52021B7
:10216000072000F0F9FA304670BD00000FB47CB5CE
:1021700014460D460646582209A95D48FEF78BF91C
:102180005C4B0120DE60DD801C8100F0BFF8002088
:1021900000F0B2F80520FEF78DFA0821002000F0CB
:1021A000DBFA3F21012000F0D7FA0321022000F0E2
:1021B000D3FA0321084600F0CFFA0321042000F0EF
:1021C000CBFA0221052000F0C7FA0F21062000F00B
:1021D000C3FA0E21072000F0BFFA0021082000F00A
:1021E000BBFA0021092000F0B7FAE7248DF803407C
:1021F0008DF802408DF801408DF804408DF80040C4
:10220000052269460A2000F0BFFAC2208DF80300BB
:102210008DF802008DF801008DF804008DF80000A3
:10222000052269460B2000F0AFFAC3210C2000F014
:1022300093FAC4210D2000F08FFAC5210E2000F082
:102240008BFAC6210F2000F087FA8DF803408DF835
:1022500002408DF801408DF804408DF800400522C1
:102260006946102000F090FA0021112000F074FA65
:102270000021122000F070FA0021132000F06CFA07
:102280000021142000F068FA0021152000F064FA03
:102290000021162000F060FAFFF728FF00211C2023
:1022A00000F05AFA00211D2000F056FA00F018FD47
:1022B0000F21084600F090F9032000F067F9012093
:1022C00000F036F9022000F018F900F029F820207B
:1022D00000F07AF900F006F94C2000F022F900F045
:1022E00037F800F031F800F07FF87CBC5DF814FBA3
:1022F000E001002030000020020003480189C0688E
:1023000000D00122FEF7D8BA3000002002000348B6
:10231000C188C06800D00122FEF7CEBA300000208C
:1023200010B51D2000F0A0F820F004011D2000F0E1
:1023300013FA00211C2000F00FFA02490020C87097
:1023400010BD000030000020FF21E22000F004BAA0
:10235000FF21E12000F000BA602000F085B80720DE
:1023600000F082B87FB504001248134D06D0062C49
:102370001ED8022C07D2005D052206E0DDE902121C
:10238000C5E90412F7E7005D012202A900F0FCF99B
:102390000848A978801F005D00F0DEF9022000F0F7
:1023A00063F80121A1400843C1B2022000F0D4F932
:1023B0007FBD0000063A00083000002013B505225A
:1023C00069460A2000F0E0F905226946102000F075
:1023D000DBF904488178202900D32021112000F066
:1023E000BBF91CBD3000002010B5002000F03CF807
:1023F00020F00201BDE81040002000F0ADB910B59A
:1024000000F010F8172000F02FF800F00104FFF79B
:102410009BFF602000F028F80CB1012010BD0020C7
:1024200010BD000038B505460D4884788C4200D9AF
:102430000C460020FFF76AFF61208DF8000064233E
:10244000012269460748FFF728F9642322462946F6
:102450000448FFF777F80120FFF758FF38BD000068
:1024600030000020E001002038B504460020FFF7CE
:102470004DFF04F01F008DF800006423012269461F
:102480000848FFF70AF96423012206480DF101010B
:10249000FFF758F89DF801400120FFF737FF20466D
:1024A00038BD0000E0010020F8B5044615460E4690
:1024B0000020FFF72BFF04F01F008DF800006423BD
:1024C000012269460648FFF7E8F864232A463146A8
:1024D0000348FFF737F80120FFF718FFF8BD0000A9
:1024E000E00100207021072000F036B908B13F213B
:1024F00000E00021012000F02FB910B504460020B3
:10250000FFF7B2FF20F00C011CB1012C06D041F006
:102510000C01BDE81040002000F01EB941F0080198
:10252000F7E77F2800D37F200146052000F014B98B
:102530002DE9F04107464FF000080620FFF794FF11
:10254000114D002620F028046E71022F0ED0012FAD
:1025500010D06E712146062000F0FEF80620FFF72D
:1025600083FFA0420BD14FF0010809E06E7144F0E7
:102570002004EFE70120687144F00804EAE76E7177
:102580004046BDE8F08100003000002010B5044650
:102590000620FFF769FF20F00601032C0DD0022C66
:1025A00005D0012C06D054B1042C06D007E041F030
:1025B000040104E041F0020101E041F00601BDE840
:1025C0001040062000F0C8B8202800D32020014980
:1025D000887070473000002000F00F0060F31F117A
:1025E000042000F0B9B8000010B50020FFF73CFF50
:1025F00040F00301002000F0AFF80B49D1E90401DD
:10260000084305D00849052210310A2000F0BCF823
:10261000FFF79EFEFFF798FE0120FFF76DFEBDE875
:1026200010409620FFF778BD3000002070B50546B9
:102630000C460020FFF760FE0020FFF715FF20F09A
:10264000010040F00201002000F086F80120FFF7B1
:1026500053FE9620FFF760FD2146284600F060F803
:102660000120FFF749FE0F20FFF756FDBDE870403F
:102670000020FFF741BE10B50020FFF73DFEFFF739
:1026800067FEBDE81040FFF75FBE2DE9F04115463B
:102690000E460446FFF763FE0746002020707021B7
:1026A000072000F059F8C7F340102070C7F300105E
:1026B0003070C7F380102870BDE8F0813EB50C463D
:1026C0000546FFF70FFF21462846FFF7AFFFFEF74D
:1026D000F9F80446012201A90820FFF7E5FEFFF7FB
:1026E0003EFE10F0300F04D1FEF7ECF8001B0A2874
:1026F000F0D30A4A02A96846FFF7C7FF074C9DF8C6
:102700000050207810B1FFF727FE60700020FFF71F
:1027100014FDFFF71DFE28463EBD000030000020DE
:1027200038B505460C460020FFF7F0FDA0208DF8D7
:1027300000006423012269460648FEF7AEFF6423C9
:10274000224629460348FEF7A8FF0120FFF7DEFDD9
:1027500038BD0000E001002038B505460C460020D9
:10276000FFF7D4FD45F020008DF800008DF8014002
:102770006423022269460348FEF78FFF0120FFF71A
:10278000C5FD38BDE0010020F8B5044615460E46EB
:102790000020FFF7BBFD44F020008DF8000064230B
:1027A000012269460648FEF778FF64232A4631462F
:1027B0000348FEF772FF0120FFF7A8FDF8BD0000F7
:1027C000E00100207047F8B5044640684FF482737A
:1027D000984217D1A0684FF48065B0F5004F01D042
:1027E000A8420FD12068066826F04006066060689F
:1027F000984207D1A068A84204D100920B4600225B
:10280000012103E000920B4600228021204600F0C7
:1028100019F8002804D0606D40F0200060650320A6
:10282000F8BD38B50B46009204460022802100F026
:1028300009F8002804D0606D40F020006065032096
:1028400038BD00002DE9F8431E46914688460446EF
:10285000089DFEF737F8401B351AFEF733F8074698
:1028600025480068C0F3CB30684338E0701C37D08F
:10287000FEF728F8C01BA84203D215B1009860B338
:102880002CE02068416821F0E00141606068B0F50B
:10289000827F0BD1A068B0F5004F02D0B0F5806FF9
:1028A00004D12068016821F040010160A06AB0F500
:1028B000005F09D12068016821F40051016020689F
:1028C000016841F400510160012084F851000020AA
:1028D00084F850000320BDE8F8830025401E0090D6
:1028E0002068816838EA010004D000214945BDD143
:1028F0000020F0E70121F9E72C0000207047FEF7E7
:1029000099BA30B58FB028216846FDF7F6FD14213D
:102910000AA8FDF7F2FD01210804CDE9001000240A
:10292000029402250491CDE907504FF4E01009907C
:102930006846FEF7E5FB08B172B6FEE70F20CDE969
:102940000A054FF48060CDE90C4002210AA80E94DC
:10295000FEF7FAFA002801D072B6FEE70FB030BDDC
:102960007047000070B5044600680169E26821F410
:102970004051114301612169A0680843616908431E
:102980002168CA6841F20C639A430243CA60206816
:102990004169A26921F44071114341611E492068D7
:1029A000884202D1FEF776FB01E0FEF763FB00EB05
:1029B000C00101EB0012606864218000B2FBF0F3FB
:1029C000B3FBF1F36FF018067343B2FBF0F5B2FB03
:1029D000F0F605EB8305322303EB0515B5FBF1F5A6
:1029E000B6FBF1F605F0F00505EB0615B2FBF0F6C7
:1029F000B2FBF0F0B0FBF1F06FF01802504306EBC1
:102A0000800003EB0010B0FBF1F0216800F00F0034
:102A10002844886070BD0000003801402DE9F04175
:102A2000984617460E460446069D27E0681C25D0AA
:102A30002DB1FDF747FFA0EB0800A8421ED9206882
:102A40000C3050E8001F21F4D07140E80012002A39
:102A5000F5D12068143050E8001F21F0010140E852
:102A60000012002AF5D1202084F8410084F84200A9
:102A7000002084F840000320BDE8F0812068006851
:102A800036EA000004D00020B842CFD00020F3E79F
:102A90000120F9E7FEE70907090E002804DB00F131
:102AA000E02080F80014704700F00F0000F1E020F3
:102AB00080F8141D704730380A2801D20120704771
:102AC0000020704710B50188438819448AB200215C
:102AD00007E000BF00EB4104491CA488C9B22244AE
:102AE00092B28B42F6D8D0B210BD0000ACB0FEF767
:102AF000A9F9FFF706FFFFF79DFA6D486B4900251E
:102B000001606C49C0E901154FF48041C0E90351EF
:102B100045618561C5610562FDF7DAFE08B172B6EF
:102B2000FEE7FFF7BFFA624C6348AC3420604FF415
:102B3000E130C4E901050C20E560C4E90450A56159
:102B40002046E561FEF76BFF08B172B6FEE7584913
:102B50003622543115A8FDF79EFC554D5435E88EAC
:102B6000ADF88A0005F12C06F0682390308AADF8A4
:102B70009000E88FADF89200112205F1400125A8E0
:102B8000FDF789FC95F851008DF8A500686D2A9035
:102B9000542216A96846FDF77EFC082210214748FA
:102BA000159BFFF7E3FA262205F158010EA8FDF761
:102BB00072FCE08CADF85E00706D1890B6F85800AD
:102BC000ADF86400E08DADF86600206B1A90606B84
:102BD0001B90092205F190011CA8FDF75CFC94F8FC
:102BE00041008DF8790094F842008DF87A00606C0D
:102BF0001F90382212A96846FDF74DFC0DF1380CE4
:102C00009CE80F0000F060F800F06AF83420FFF74D
:102C100088FC2020FFF7D8FC0120FFF767FC284C38
:102C20000020D4E90623FFF79DFB40212048FFF751
:102C3000CEF945211E48FFF7CAF90127A035022623
:102C4000FFF7D2FC0A20FDF735FDFFF773FA30B12C
:102C500020211C48FFF7D3FB1A4800F029FC402133
:102C60001348FFF7C7F9206045211148FFF7C2F963
:102C700001466060206800F039FEA060FFF7FBFCB1
:102C8000D4E90401FFF79AFB2F806E80A06800F062
:102C9000C3FDA8800B484038FFF714FF288109487E
:102CA00020214038FFF70AFDCAE700000054004029
:102CB00048000020A08601000038014000080140C3
:102CC000000000207C0100200FB4482210B502A9AA
:102CD0000248FDF7E0FB10BC5DF814FB3802002051
:102CE00010B5A0B0F4A104A8FDF776FA04A8FDF78A
:102CF000B3FB82B20A2304A9FC48FEF7FBFE0020C6
:102D0000FFF7B2FB01077AD5400701D5F8A100E033
:102D1000FEA104A8FDF760FA04A8FDF79DFB82B2AE
:102D20000A2304A9F148FEF7E5FE0120FFF79CFB0A
:102D3000C0F34014C0F30013C0F3C002C0F380011D
:102D40008DE81E0000F00102C0F34003F64904A81C
:102D5000FDF742FA04A8FDF77FFB82B20A2304A91B
:102D6000E248FEF7C7FE0220FFF77EFBC0F34014E7
:102D7000C0F30013C0F3C002C0F380018DE81E0051
:102D800000F00102C0F34003E84904A8FDF724FA6B
:102D900004A8FDF761FB82B20A2304A9D348FEF719
:102DA000A9FE0320FFF760FB00F00302E0A104A8E6
:102DB000921CFDF711FA04A8FDF74EFB82B20A231C
:102DC00004A9CA48FEF796FE0520FFF74DFB00F068
:102DD0007F02DEA104A8FDF7FFF904A8FDF73CFB84
:102DE00082B20A2304A9C148FEF784FE0620FFF739
:102DF0003BFB0446000704D5D9A103E0FFE7DEA1B1
:102E000087E7E2A104A8FDF7E7F904A8FDF724FB92
:102E100082B20A2304A9B548FEF76CFE032010EA2B
:102E2000540006D0012806D0022806D0032806D078
:102E300009E0DCA104E0E0A102E0E4A100E0E8A1F7
:102E400004A8FDF7C9F904A8FDF706FB82B20A231E
:102E500004A9A648FEF74EFE05221DA90A20FFF789
:102E600023FB9DF876009DF874209DF875108DE881
:102E700007009DF877309DF87820DEA104A8FDF7C3
:102E8000ABF904A8FDF7E8FA82B20A2304A997482F
:102E9000FEF730FE05221DA90B20FFF705FB9DF86C
:102EA00076009DF874209DF875108DE807009DF858
:102EB00077309DF87820DBA104A8FDF78DF904A8F0
:102EC000FDF7CAFA82B20A2304A98848FEF712FE67
:102ED00001221DA90C20FFF7E7FA9DF87420DDA15F
:102EE00004A8FDF779F904A8FDF7B6FA82B20A231F
:102EF00004A97E48FEF7FEFD01221DA90D20FFF763
:102F0000D3FA9DF87420DDA104A8FDF765F904A8A3
:102F1000FDF7A2FA82B20A2304A97448FEF7EAFD7B
:102F200001221DA90E20FFF7BFFA9DF87420DDA134
:102F300004A8FDF751F904A8FDF78EFA82B20A231E
:102F400004A96A48FEF7D6FD01221DA90F20FFF74C
:102F5000ABFA9DF87420DDA104A8FDF73DF904A8A3
:102F6000FDF77AFA82B20A2304A96048FEF7C2FD8F
:102F700005221DA91020FFF797FA9DF876009DF80D
:102F800074209DF875108DE807009DF877309DF846
:102F90007820D8A104A8FDF71FF904A8FDF75CFA72
:102FA00082B20A2304A95148FEF7A4FD1120FFF7BD
:102FB0005BFA00F03F02DAA104A8FDF70DF904A8BE
:102FC000FDF74AFA82B20A2304A94848FEF792FDA7
:102FD0001220FFF749FA00F03F02D8A104A8FDF73C
:102FE000FBF804A8FDF738FA82B20A2304A93F4887
:102FF000FEF780FD1320FFF737FA00F03F02D6A15D
:1030000004A8FDF7E9F804A8FDF726FA82B20A231E
:1030100004A93648FEF76EFD1420FFF725FA00F0EC
:103020003F02D4A104A8FDF7D7F804A8FDF714FACD
:1030300082B20A2304A92D48FEF75CFD1520FFF794
:1030400013FA00F03F02D2A104A8FDF7C5F804A8C6
:10305000FDF702FA82B20A2304A92448FEF74AFDCA
:103060001620FFF701FA00F03F02D0A104A8FDF7F7
:10307000B3F804A8FDF7F0F982B20A2304A91B48AB
:10308000FEF738FD1C20FFF7EFF9C0F34014C0F342
:103090000013C0F3C002C0F380018DE81E0000F0F1
:1030A0000102C0F34003C84904A8FDF795F804A83D
:1030B000FDF7D2F982B289E10D0A2A2A2A2A2A2AA0
:1030C0002A2A2A2A2A2A2A2A2A2A2A2A2A2A2A2A60
:1030D0002A2A2A2A2A2A2A2A2A2A2A2A2A2A2A2A50
:1030E0002A2A2A2A2A2A2A2A0D0A0000380200201F
:1030F0004352433A0D0A0909456E61626C65642CBE
:103100002032204279746573200D0A004352433AFD
:103110000D0A0909456E61626C65642C20312042FC
:10312000797465200D0A0000483A00088C3A0008BE
:1031300053455455505F41573A0D0A0909256420FB
:103140006279746573200D0A0000000052465F43E7
:10315000483A0D0A09092564204348200D0A000059
:103160004461746120526174653A0D0A0909324D57
:10317000627073200D0A00004352433A0D0A090998
:1031800044697361626C6564200D0A004461746176
:1031900020526174653A0D0A0909314D627073203D
:1031A0000D0A000052465F5057523A0D0A09092D88
:1031B00031386442200D0A0052465F5057523A0D92
:1031C0000A09092D31326442200D0A0052465F502F
:1031D00057523A0D0A09092D366442200D0A0000A3
:1031E00052465F5057523A0D0A0909306442200D89
:1031F0000A00000052585F506970653020416464D5
:1032000072733A0D0A0909253032582C253032588C
:103210002C253032582C253032582C25303258206D
:10322000200D0A0052585F50697065312041646476
:1032300072733A0D0A0909253032582C253032585C
:103240002C253032582C253032582C25303258203D
:10325000200D0A0052585F50697065322041646445
:1032600072733A0D0A090978782C78782C78782CC2
:1032700078782C2530325820200D0A0052585F50A3
:10328000697065332041646472733A0D0A090978E4
:10329000782C78782C78782C78782C253032582037
:1032A000200D0A0052585F506970653420416464F3
:1032B00072733A0D0A090978782C78782C78782C72
:1032C00078782C2530325820200D0A0052585F5053
:1032D000697065352041646472733A0D0A09097892
:1032E000782C78782C78782C78782C2530325820E7
:1032F000200D0A0054582041646472733A0D0A0983
:1033000009253032582C253032582C253032582C93
:10331000253032582C2530325820200D0A0000006C
:1033200052585F50575F50303A0D0A090925642002
:103330006279746573200D0A0000000052585F50D6
:10334000575F50313A0D0A09092564206279746586
:1033500073200D0A0000000052585F50575F503232
:103360003A0D0A09092564206279746573200D0AF3
:103370000000000052585F50575F50333A0D0A0961
:10338000092564206279746573200D0A000000002D
:1033900052585F50575F50343A0D0A09092564208E
:1033A0006279746573200D0A0000000052585F5066
:1033B000575F50353A0D0A09092564206279746512
:1033C00073200D0A00000000D83A00080A2304A95F
:1033D0001C48FEF78FFB1D20FFF746F80446400708
:1033E00001D519A100E01EA104A8FCF7F5FE04A870
:1033F000FDF732F882B20A2304A91248FEF77AFBDD
:10340000A00701D51CA100E022A104A8FCF7E4FE5E
:1034100004A8FDF721F882B20A2304A90948FEF79F
:1034200069FBAFF26C3104A8FCF7D6FE04A8FDF7E7
:1034300013F882B20A2304A90248FEF75BFB20B00E
:1034400010BD000038020020454E5F44504C3A0D3C
:103450000A0909456E61626C6564200D0A0000006E
:10346000454E5F44504C3A0D0A0909446973616244
:103470006C6564200D0A0000454E5F41434B5F5070
:1034800041593A0D0A0909456E61626C6564200D67
:103490000A000000454E5F41434B5F5041593A0DD1
:1034A0000A090944697361626C6564200D0A0000B1
:1034B00030B504468078801CC5B22046FFF702FB79
:1034C00034F81510884201D1012030BD002030BDF4
:1034D00021F00042A2F16052B2F5801F01F00043DA
:1034E00028BFD2F17F6C0BD95FEA001C43EAC2020D
:1034F00042EB507018BF704728BF20F001007047A2
:10350000B2F5801FBCBF184670474FEA410C1CF54E
:10351000001F02D2084600F0E4B970B500F0C6F80A
:1035200000000089FFF7F6BF4FF00040A0F58000D3
:103530007047B0FA80F310FA03F10AD0C3F11D030B
:1035400003F580634FEA41504FEA035202EBD12169
:1035500070474FF000007047DFF848C170B51CEAB3
:10356000111E1EBF1CEA13159EEA0C0F95EA0C0FE4
:1035700000F06F8081EA030423EA4C134EEAD47E04
:1035800021EA4C1141F4801143F48013AE44A1FBB5
:10359000024CA0FB0365AEF17F7E361955EB0C059E
:1035A000A1FB034C4CF10003A0FB021C16EB0C0624
:1035B000654153F10003094218BF46F0010613F4B8
:1035C000007F0BD14FEA03314FEA0530340341EA63
:1035D000155140EA16506FF003020AE04FEAC3218A
:1035E0004FEAC520F40241EA555140EA56506FF0C7
:1035F000020202EB2E4201EB025585EACE710AD09F
:103600005FEA440C18BF24F0004450F1000041F17F
:10361000000120EAD47040F2FE7C624500D270BD09
:10362000A84214BF4FF080444FF04044002E08BF22
:103630000024BEF1806FA8BFA1F1C041BDE8704079
:1036400080F282804FF0000001F1C04101F00041A2
:1036500070479EEA0C0F0CEA131518BF95EA0C0F81
:1036600006D04FF0000081EA030E0EF0004170BD5D
:1036700000F01CF88900013E00F007B800F009B81E
:103680004FEA430C5FEA5C5C08D081EA030100F07A
:103690005BB84FEA410C5FEA5C5CF6D14FF000008A
:1036A000014970470000FF070000F87F0EF1020E8D
:1036B0002EF0030E5EF8046B364205D4012A43EB6C
:1036C000030515F5001F12D8012841EB010C1CF56C
:1036D000001F0CD80ED14FEAD17C15F5001F0CEB62
:1036E0004C0C0CF1020C08BF4CEBD37C04E04FF007
:1036F000080C01E04FEAD37C0CEB4C0526FA05F6EA
:1037000006F00706B6F1040C06D20EEB860CBDE8F7
:1037100070404CF0010C6047DFE80CF0090B02022E
:103720004FF000414FF00000A1F5002170BD194697
:103730001046012851EB010418BFD4F5001484BFD2
:10374000002001F0004170BD0808A0F500114FEA0B
:103750003101704790EA010F48BF81F0004100F14C
:10376000CC80421A3CBF801A89184FEAD0524FF0E1
:103770007F4C1CEA410FA2EBD15318BF9CEA026FA9
:1037800000F03B804FF0004C4CEA00204CEA012155
:1037900021FA03FC10EB0C0C1ED202F1FF325FEA9F
:1037A0001C2040EBC25038BF70471CF07F0F4FEA1F
:1037B000400C18BFBCF17F4F38BF7047C3F12003E6
:1037C000994008BF20F00100BCF17F4F38BF70471F
:1037D000A0F1C04000F085B84FEA3C00000A40EB81
:1037E000C25028BF1CF0FF0F4FEA400CE6D018BFB4
:1037F000BCF17F4F38BF7047EAE79CEA026F05D003
:1038000010EA5C0F08BF00F00040704710B500F0F0
:1038100022F800BF64FBBE3EC10DD1F19E0206DB63
:103820004FEA002343F0004323FA02F070470042BE
:1038300007D54FEA4001B1F1FE4F02D24FF0000030
:10384000704710B500F007F84992248000207047B7
:103850006FEA200070470EF1020E2EF0030E5EF8A4
:10386000044B244204D44FEA4102B2F17F4F11D8F5
:103870004FEA4003B3F17F4F0CD80ED14FEAD07C12
:10388000B2F17F4F0CEB4C0C0CF1020C08BF4CEB6F
:10389000D17C04E04FF0080C01E04FEAD17C0CEB46
:1038A0004C0324FA03F404F00704B4F1040C06D228
:1038B0000EEB840CBDE810404CF0010C6047DFE8D3
:1038C0000CF0070802024FF00040A0F5800010BD88
:1038D0000846420018BFD2F1807288BF00F0004055
:1038E00010BDFF2141EAD050C005704790EA010F9A
:1038F00048BF81F000413FF534AF421A04D882F04E
:103900000042A0EB020011444FEAD0524FF07F4C2E
:103910001CEA410FA2EBD15318BF9CEA026F4AD0B8
:103920004FF0004C4CEA00204CEA012121FA03FC44
:10393000B0EB0C0C0FD412F0FE0F36D05FEA4C0047
:103940001DD5001240EBC25038BF70471CF03F0F2E
:1039500018BF70470BE0A2F101025FEA1C2040EBA8
:10396000C25038BF70471CF07F0F18BF7047C3F1BB
:103970002003994014BF401E20F0010070478008CA
:103980004FEA122308BF7047B0FA80FCA2EB0C028A
:10399000CCF1280C60FA0CF093EA122F04BF00EB74
:1039A000C25070474FEAC3707047130A5FEADC10D9
:1039B00008BF7047F6E79CEA026F04D010EA5C0F7C
:1039C00008BF0020704710B5FFF745FF40DFF63E07
:1039D00081F0004070470102020304050607080950
:1039E0000A0B0C0D0E0F101000000000000000006C
:1039F0000102030406070809000000000102030495
:103A00001112131415160A0B0C0D0E0F1030313253
:103A100033343536373839414243444546403058CF
:103A2000003031323334353637383961626364659A
:103A3000664030780004000008000000000000002C
:103A40000200010000100000454E41413A0D0A09F4
:103A50000950303A0925640D0A090950313A0925FF
:103A6000640D0A090950323A0925640D0A09095002
:103A7000333A0925640D0A090950343A0925640DC1
:103A80000A090950353A0925640D0A00454E5F526E
:103A900058414444523A0D0A090950303A09256404
:103AA0000D0A090950313A0925640D0A09095032F5
:103AB0003A0925640D0A090950333A0925640D0AAB
:103AC000090950343A0925640D0A090950353A09A3
:103AD00025640D0A0000000044594E50445F70698F
:103AE00070653A0D0A090950303A0925640D0A0932
:103AF0000950313A0925640D0A090950323A09255D
:103B0000640D0A090950333A0925640D0A09095060
:103B1000343A0925640D0A090950353A0925640D1E
:103B20000A000000443B000800000020480000009C
:103B3000280100088C3B000848000020980800007D
:103B40004401000800000000000000000000000028
:103B500000000000AA44332211000000AA443322CE
:103B60001100000001000000100000000000000033
:103B70000024F4000000000000000000000000002D
:0C3B800000000000000000000000000039
:04000005080000ED02
:00000001FF
